{
  "contractName": "UwUcoin",
  "abi": [
    {
      "constant": true,
      "inputs": [],
      "name": "name",
      "outputs": [
        {
          "name": "",
          "type": "string"
        }
      ],
      "payable": false,
      "stateMutability": "view",
      "type": "function"
    },
    {
      "constant": true,
      "inputs": [],
      "name": "totalSupply",
      "outputs": [
        {
          "name": "",
          "type": "uint256"
        }
      ],
      "payable": false,
      "stateMutability": "view",
      "type": "function"
    },
    {
      "constant": true,
      "inputs": [],
      "name": "standard",
      "outputs": [
        {
          "name": "",
          "type": "string"
        }
      ],
      "payable": false,
      "stateMutability": "view",
      "type": "function"
    },
    {
      "constant": true,
      "inputs": [],
      "name": "symbol",
      "outputs": [
        {
          "name": "",
          "type": "string"
        }
      ],
      "payable": false,
      "stateMutability": "view",
      "type": "function"
    },
    {
      "inputs": [],
      "payable": false,
      "stateMutability": "nonpayable",
      "type": "constructor"
    }
  ],
  "bytecode": "0x60806040526040805190810160405280600881526020017f55775520436f696e0000000000000000000000000000000000000000000000008152506000908051906020019061004f929190610104565b506040805190810160405280600381526020017f55575500000000000000000000000000000000000000000000000000000000008152506001908051906020019061009b929190610104565b506040805190810160405280600d81526020017f55775520436f696e2076312e3000000000000000000000000000000000000000815250600290805190602001906100e7929190610104565b503480156100f457600080fd5b50620f42406003819055506101a9565b828054600181600116156101000203166002900490600052602060002090601f016020900481019282601f1061014557805160ff1916838001178555610173565b82800160010185558215610173579182015b82811115610172578251825591602001919060010190610157565b5b5090506101809190610184565b5090565b6101a691905b808211156101a257600081600090555060010161018a565b5090565b90565b61044e806101b86000396000f300608060405260043610610062576000357c0100000000000000000000000000000000000000000000000000000000900463ffffffff16806306fdde031461006757806318160ddd146100f75780635a3b7e421461012257806395d89b41146101b2575b600080fd5b34801561007357600080fd5b5061007c610242565b6040518080602001828103825283818151815260200191508051906020019080838360005b838110156100bc5780820151818401526020810190506100a1565b50505050905090810190601f1680156100e95780820380516001836020036101000a031916815260200191505b509250505060405180910390f35b34801561010357600080fd5b5061010c6102e0565b6040518082815260200191505060405180910390f35b34801561012e57600080fd5b506101376102e6565b6040518080602001828103825283818151815260200191508051906020019080838360005b8381101561017757808201518184015260208101905061015c565b50505050905090810190601f1680156101a45780820380516001836020036101000a031916815260200191505b509250505060405180910390f35b3480156101be57600080fd5b506101c7610384565b6040518080602001828103825283818151815260200191508051906020019080838360005b838110156102075780820151818401526020810190506101ec565b50505050905090810190601f1680156102345780820380516001836020036101000a031916815260200191505b509250505060405180910390f35b60008054600181600116156101000203166002900480601f0160208091040260200160405190810160405280929190818152602001828054600181600116156101000203166002900480156102d85780601f106102ad576101008083540402835291602001916102d8565b820191906000526020600020905b8154815290600101906020018083116102bb57829003601f168201915b505050505081565b60035481565b60028054600181600116156101000203166002900480601f01602080910402602001604051908101604052809291908181526020018280546001816001161561010002031660029004801561037c5780601f106103515761010080835404028352916020019161037c565b820191906000526020600020905b81548152906001019060200180831161035f57829003601f168201915b505050505081565b60018054600181600116156101000203166002900480601f01602080910402602001604051908101604052809291908181526020018280546001816001161561010002031660029004801561041a5780601f106103ef5761010080835404028352916020019161041a565b820191906000526020600020905b8154815290600101906020018083116103fd57829003601f168201915b5050505050815600a165627a7a72305820954ef0ad83ec5f0988e348eabd79f7f4392a6b4ffcb54153f9da93ccf2dff3a90029",
  "source": "pragma solidity ^0.4.22;\n\ncontract UwUcoin {\n  string public name = \"UwU Coin\";\n  string public symbol = \"UWU\";\n  string public standard = \"UwU Coin v1.0\";\n  uint256 public totalSupply;\n\n  //event Transfer(\n    //address indexed _from,\n    //address indexed _to,\n    //uint _value\n  //);\n\n  //event Approval(\n    //address indexed _owner,\n    //address indexed _spender,\n    //uint256 _value\n  //);\n\n  //mapping(address => uint256) public balanceOf;\n  //mapping(address => mapping(address => uint256)) public allowance;\n\n  function UwUcoin () public {\n    //balanceOf[msg.sender] = _initalSupply;\n    totalSupply = 1000000; //_initalSupply;\n  }\n}\n",
  "sourcePath": "/home/f0xx/Documents/BLOCKCHAIN/uwucoin/contracts/UwUcoin.sol",
  "compiler": {
    "name": "solc",
    "version": "0.4.22+commit.4cb486ee.Emscripten.clang"
  },
  "schemaVersion": "3.3.4",
  "updatedAt": "2021-03-09T01:54:35.344Z",
  "networkType": "ethereum",
  "devdoc": {
    "methods": {}
  },
  "userdoc": {
    "methods": {}
  }
}